{
  "contractName": "MarketPlace",
  "abi": [
    {
      "constant": true,
      "inputs": [
        {
          "name": "",
          "type": "address"
        }
      ],
      "name": "owners",
      "outputs": [
        {
          "name": "",
          "type": "bool"
        }
      ],
      "payable": false,
      "stateMutability": "view",
      "type": "function"
    },
    {
      "constant": true,
      "inputs": [
        {
          "name": "",
          "type": "uint256"
        }
      ],
      "name": "allStores",
      "outputs": [
        {
          "name": "",
          "type": "address"
        }
      ],
      "payable": false,
      "stateMutability": "view",
      "type": "function"
    },
    {
      "constant": false,
      "inputs": [],
      "name": "unpause",
      "outputs": [],
      "payable": false,
      "stateMutability": "nonpayable",
      "type": "function"
    },
    {
      "constant": true,
      "inputs": [
        {
          "name": "",
          "type": "address"
        }
      ],
      "name": "admins",
      "outputs": [
        {
          "name": "",
          "type": "bool"
        }
      ],
      "payable": false,
      "stateMutability": "view",
      "type": "function"
    },
    {
      "constant": true,
      "inputs": [
        {
          "name": "",
          "type": "address"
        },
        {
          "name": "",
          "type": "uint256"
        }
      ],
      "name": "stores",
      "outputs": [
        {
          "name": "",
          "type": "address"
        }
      ],
      "payable": false,
      "stateMutability": "view",
      "type": "function"
    },
    {
      "constant": true,
      "inputs": [],
      "name": "paused",
      "outputs": [
        {
          "name": "",
          "type": "bool"
        }
      ],
      "payable": false,
      "stateMutability": "view",
      "type": "function"
    },
    {
      "constant": false,
      "inputs": [],
      "name": "pause",
      "outputs": [],
      "payable": false,
      "stateMutability": "nonpayable",
      "type": "function"
    },
    {
      "constant": true,
      "inputs": [],
      "name": "owner",
      "outputs": [
        {
          "name": "",
          "type": "address"
        }
      ],
      "payable": false,
      "stateMutability": "view",
      "type": "function"
    },
    {
      "constant": false,
      "inputs": [
        {
          "name": "newOwner",
          "type": "address"
        }
      ],
      "name": "transferOwnership",
      "outputs": [],
      "payable": false,
      "stateMutability": "nonpayable",
      "type": "function"
    },
    {
      "inputs": [],
      "payable": false,
      "stateMutability": "nonpayable",
      "type": "constructor"
    },
    {
      "anonymous": false,
      "inputs": [
        {
          "indexed": false,
          "name": "store",
          "type": "address"
        }
      ],
      "name": "NewStore",
      "type": "event"
    },
    {
      "anonymous": false,
      "inputs": [],
      "name": "Pause",
      "type": "event"
    },
    {
      "anonymous": false,
      "inputs": [],
      "name": "Unpause",
      "type": "event"
    },
    {
      "anonymous": false,
      "inputs": [
        {
          "indexed": true,
          "name": "previousOwner",
          "type": "address"
        },
        {
          "indexed": true,
          "name": "newOwner",
          "type": "address"
        }
      ],
      "name": "OwnershipTransferred",
      "type": "event"
    },
    {
      "constant": false,
      "inputs": [
        {
          "name": "newAdmin",
          "type": "address"
        }
      ],
      "name": "addAdmin",
      "outputs": [
        {
          "name": "success",
          "type": "bool"
        }
      ],
      "payable": false,
      "stateMutability": "nonpayable",
      "type": "function"
    },
    {
      "constant": false,
      "inputs": [
        {
          "name": "newOwner",
          "type": "address"
        }
      ],
      "name": "addStoreOwner",
      "outputs": [
        {
          "name": "success",
          "type": "bool"
        }
      ],
      "payable": false,
      "stateMutability": "nonpayable",
      "type": "function"
    },
    {
      "constant": false,
      "inputs": [
        {
          "name": "storeName",
          "type": "string"
        }
      ],
      "name": "addStore",
      "outputs": [
        {
          "name": "success",
          "type": "bool"
        }
      ],
      "payable": false,
      "stateMutability": "nonpayable",
      "type": "function"
    },
    {
      "constant": true,
      "inputs": [],
      "name": "getUserRole",
      "outputs": [
        {
          "name": "role",
          "type": "uint8"
        }
      ],
      "payable": false,
      "stateMutability": "view",
      "type": "function"
    },
    {
      "constant": true,
      "inputs": [],
      "name": "getStores",
      "outputs": [
        {
          "name": "",
          "type": "address[]"
        }
      ],
      "payable": false,
      "stateMutability": "view",
      "type": "function"
    }
  ],
  "bytecode": "0x608060405260008060146101000a81548160ff02191690831515021790555034801561002a57600080fd5b50336000806101000a81548173ffffffffffffffffffffffffffffffffffffffff021916908373ffffffffffffffffffffffffffffffffffffffff16021790555060018060003373ffffffffffffffffffffffffffffffffffffffff1673ffffffffffffffffffffffffffffffffffffffff16815260200190815260200160002060006101000a81548160ff021916908315150217905550612beb806100d16000396000f3006080604052600436106100d0576000357c0100000000000000000000000000000000000000000000000000000000900463ffffffff168063022914a7146100d557806332cfc484146101305780633f4ba83a1461019d578063429b62e5146101b457806354121c741461020f5780635c975abb1461029c5780635dc917f0146102cb578063662feffc1461033757806370480275146103b85780638456cb59146104135780638da5cb5b1461042a5780639adeb5f114610481578063bf04a10d146104dc578063f2fde38b14610515575b600080fd5b3480156100e157600080fd5b50610116600480360381019080803573ffffffffffffffffffffffffffffffffffffffff169060200190929190505050610558565b604051808215151515815260200191505060405180910390f35b34801561013c57600080fd5b5061015b60048036038101908080359060200190929190505050610578565b604051808273ffffffffffffffffffffffffffffffffffffffff1673ffffffffffffffffffffffffffffffffffffffff16815260200191505060405180910390f35b3480156101a957600080fd5b506101b26105b6565b005b3480156101c057600080fd5b506101f5600480360381019080803573ffffffffffffffffffffffffffffffffffffffff169060200190929190505050610674565b604051808215151515815260200191505060405180910390f35b34801561021b57600080fd5b5061025a600480360381019080803573ffffffffffffffffffffffffffffffffffffffff16906020019092919080359060200190929190505050610694565b604051808273ffffffffffffffffffffffffffffffffffffffff1673ffffffffffffffffffffffffffffffffffffffff16815260200191505060405180910390f35b3480156102a857600080fd5b506102b16106e1565b604051808215151515815260200191505060405180910390f35b3480156102d757600080fd5b506102e06106f4565b6040518080602001828103825283818151815260200191508051906020019060200280838360005b83811015610323578082015181840152602081019050610308565b505050509050019250505060405180910390f35b34801561034357600080fd5b5061039e600480360381019080803590602001908201803590602001908080601f0160208091040260200160405190810160405280939291908181526020018383808284378201915050505050509192919290505050610873565b604051808215151515815260200191505060405180910390f35b3480156103c457600080fd5b506103f9600480360381019080803573ffffffffffffffffffffffffffffffffffffffff169060200190929190505050610ca1565b604051808215151515815260200191505060405180910390f35b34801561041f57600080fd5b50610428610ddd565b005b34801561043657600080fd5b5061043f610e9d565b604051808273ffffffffffffffffffffffffffffffffffffffff1673ffffffffffffffffffffffffffffffffffffffff16815260200191505060405180910390f35b34801561048d57600080fd5b506104c2600480360381019080803573ffffffffffffffffffffffffffffffffffffffff169060200190929190505050610ec2565b604051808215151515815260200191505060405180910390f35b3480156104e857600080fd5b506104f1610fff565b6040518082600281111561050157fe5b60ff16815260200191505060405180910390f35b34801561052157600080fd5b50610556600480360381019080803573ffffffffffffffffffffffffffffffffffffffff1690602001909291905050506110cd565b005b60026020528060005260406000206000915054906101000a900460ff1681565b60048181548110151561058757fe5b906000526020600020016000915054906101000a900473ffffffffffffffffffffffffffffffffffffffff1681565b6000809054906101000a900473ffffffffffffffffffffffffffffffffffffffff1673ffffffffffffffffffffffffffffffffffffffff163373ffffffffffffffffffffffffffffffffffffffff1614151561061157600080fd5b600060149054906101000a900460ff16151561062c57600080fd5b60008060146101000a81548160ff0219169083151502179055507f7805862f689e2f13df9f062ff482ad3ad112aca9e0847911ed832e158c525b3360405160405180910390a1565b60016020528060005260406000206000915054906101000a900460ff1681565b6003602052816000526040600020818154811015156106af57fe5b906000526020600020016000915091509054906101000a900473ffffffffffffffffffffffffffffffffffffffff1681565b600060149054906101000a900460ff1681565b606060028081111561070257fe5b61070a610fff565b600281111561071557fe5b14156107a957600480548060200260200160405190810160405280929190818152602001828054801561079d57602002820191906000526020600020905b8160009054906101000a900473ffffffffffffffffffffffffffffffffffffffff1673ffffffffffffffffffffffffffffffffffffffff1681526020019060010190808311610753575b50505050509050610870565b600360003373ffffffffffffffffffffffffffffffffffffffff1673ffffffffffffffffffffffffffffffffffffffff16815260200190815260200160002080548060200260200160405190810160405280929190818152602001828054801561086857602002820191906000526020600020905b8160009054906101000a900473ffffffffffffffffffffffffffffffffffffffff1673ffffffffffffffffffffffffffffffffffffffff168152602001906001019080831161081e575b505050505090505b90565b60006060600060011515600260003373ffffffffffffffffffffffffffffffffffffffff1673ffffffffffffffffffffffffffffffffffffffff16815260200190815260200160002060009054906101000a900460ff1615151415156108d857600080fd5b600060149054906101000a900460ff161515156108f457600080fd5b60011515600260003373ffffffffffffffffffffffffffffffffffffffff1673ffffffffffffffffffffffffffffffffffffffff16815260200190815260200160002060009054906101000a900460ff1615151415156109e2576040517f08c379a00000000000000000000000000000000000000000000000000000000081526004018080602001828103825260228152602001807f4f6e6c792053746f72654f776e6572732063616e206372656174652073746f7281526020017f657300000000000000000000000000000000000000000000000000000000000081525060400191505060405180910390fd5b8391506000825114151515610a5f576040517f08c379a000000000000000000000000000000000000000000000000000000000815260040180806020018281038252601b8152602001807f53746f7265206e616d652063616e206e6f7420626520656d707479000000000081525060200191505060405180910390fd5b3384610a69611222565b808373ffffffffffffffffffffffffffffffffffffffff1673ffffffffffffffffffffffffffffffffffffffff16815260200180602001828103825283818151815260200191508051906020019080838360005b83811015610ad8578082015181840152602081019050610abd565b50505050905090810190601f168015610b055780820380516001836020036101000a031916815260200191505b509350505050604051809103906000f080158015610b27573d6000803e3d6000fd5b509050600360003373ffffffffffffffffffffffffffffffffffffffff1673ffffffffffffffffffffffffffffffffffffffff1681526020019081526020016000208190806001815401808255809150509060018203906000526020600020016000909192909190916101000a81548173ffffffffffffffffffffffffffffffffffffffff021916908373ffffffffffffffffffffffffffffffffffffffff1602179055505060048190806001815401808255809150509060018203906000526020600020016000909192909190916101000a81548173ffffffffffffffffffffffffffffffffffffffff021916908373ffffffffffffffffffffffffffffffffffffffff160217905550507f17689f18ea745d83191e8d8bea2d3d808c05700212201460eaec9dd550014d5981604051808273ffffffffffffffffffffffffffffffffffffffff1673ffffffffffffffffffffffffffffffffffffffff16815260200191505060405180910390a1600192505050919050565b600060011515600160003373ffffffffffffffffffffffffffffffffffffffff1673ffffffffffffffffffffffffffffffffffffffff16815260200190815260200160002060009054906101000a900460ff161515141515610d0257600080fd5b600060149054906101000a900460ff16151515610d1e57600080fd5b60001515600160008473ffffffffffffffffffffffffffffffffffffffff1673ffffffffffffffffffffffffffffffffffffffff16815260200190815260200160002060009054906101000a900460ff161515141515610d7d57600080fd5b60018060008473ffffffffffffffffffffffffffffffffffffffff1673ffffffffffffffffffffffffffffffffffffffff16815260200190815260200160002060006101000a81548160ff02191690831515021790555060019050919050565b6000809054906101000a900473ffffffffffffffffffffffffffffffffffffffff1673ffffffffffffffffffffffffffffffffffffffff163373ffffffffffffffffffffffffffffffffffffffff16141515610e3857600080fd5b600060149054906101000a900460ff16151515610e5457600080fd5b6001600060146101000a81548160ff0219169083151502179055507f6985a02210a168e66602d3235cb6db0e70f92b3ba4d376a33c0f3d9434bff62560405160405180910390a1565b6000809054906101000a900473ffffffffffffffffffffffffffffffffffffffff1681565b600060011515600160003373ffffffffffffffffffffffffffffffffffffffff1673ffffffffffffffffffffffffffffffffffffffff16815260200190815260200160002060009054906101000a900460ff161515141515610f2357600080fd5b600060149054906101000a900460ff16151515610f3f57600080fd5b60001515600260008473ffffffffffffffffffffffffffffffffffffffff1673ffffffffffffffffffffffffffffffffffffffff16815260200190815260200160002060009054906101000a900460ff161515141515610f9e57600080fd5b6001600260008473ffffffffffffffffffffffffffffffffffffffff1673ffffffffffffffffffffffffffffffffffffffff16815260200190815260200160002060006101000a81548160ff02191690831515021790555060019050919050565b600060011515600160003373ffffffffffffffffffffffffffffffffffffffff1673ffffffffffffffffffffffffffffffffffffffff16815260200190815260200160002060009054906101000a900460ff161515141561106357600090506110ca565b60011515600260003373ffffffffffffffffffffffffffffffffffffffff1673ffffffffffffffffffffffffffffffffffffffff16815260200190815260200160002060009054906101000a900460ff16151514156110c557600190506110ca565b600290505b90565b6000809054906101000a900473ffffffffffffffffffffffffffffffffffffffff1673ffffffffffffffffffffffffffffffffffffffff163373ffffffffffffffffffffffffffffffffffffffff1614151561112857600080fd5b600073ffffffffffffffffffffffffffffffffffffffff168173ffffffffffffffffffffffffffffffffffffffff161415151561116457600080fd5b8073ffffffffffffffffffffffffffffffffffffffff166000809054906101000a900473ffffffffffffffffffffffffffffffffffffffff1673ffffffffffffffffffffffffffffffffffffffff167f8be0079c531659141344cd1fd0a4f28419497f9722a3daafe3b4186f6b6457e060405160405180910390a3806000806101000a81548173ffffffffffffffffffffffffffffffffffffffff021916908373ffffffffffffffffffffffffffffffffffffffff16021790555050565b60405161198d80611233833901905600608060405260008060146101000a81548160ff0219169083151502179055503480156200002b57600080fd5b506040516200198d3803806200198d8339810180604052810190808051906020019092919080518201929190505050336000806101000a81548173ffffffffffffffffffffffffffffffffffffffff021916908373ffffffffffffffffffffffffffffffffffffffff16021790555081600260006101000a81548173ffffffffffffffffffffffffffffffffffffffff021916908373ffffffffffffffffffffffffffffffffffffffff1602179055508060039080519060200190620000f3929190620000fc565b505050620001ab565b828054600181600116156101000203166002900490600052602060002090601f016020900481019282601f106200013f57805160ff191683800117855562000170565b8280016001018555821562000170579182015b828111156200016f57825182559160200191906001019062000152565b5b5090506200017f919062000183565b5090565b620001a891905b80821115620001a45760008160009055506001016200018a565b5090565b90565b6117d280620001bb6000396000f300608060405260043610610107576000357c0100000000000000000000000000000000000000000000000000000000900463ffffffff1680632faa393d1461010c5780633f4ba83a1461014e57806351cff8d914610165578063521936e6146101a85780635c975abb146102385780637acc0b20146102675780637edd19a214610322578063818fb3e01461037157806383197ef0146103c85780638456cb59146103df57806387a1e927146103f65780638da5cb5b14610445578063b9db15b41461049c578063bf5c88ff14610550578063c27ed2a21461057b578063d4ae6c201461061a578063e3a9db1a14610669578063f2fde38b146106c0578063f340fa0114610703575b600080fd5b6101346004803603810190808035906020019092919080359060200190929190505050610739565b604051808215151515815260200191505060405180910390f35b34801561015a57600080fd5b50610163610886565b005b34801561017157600080fd5b506101a6600480360381019080803573ffffffffffffffffffffffffffffffffffffffff169060200190929190505050610944565b005b3480156101b457600080fd5b506101bd610ae4565b6040518080602001828103825283818151815260200191508051906020019080838360005b838110156101fd5780820151818401526020810190506101e2565b50505050905090810190601f16801561022a5780820380516001836020036101000a031916815260200191505b509250505060405180910390f35b34801561024457600080fd5b5061024d610b82565b604051808215151515815260200191505060405180910390f35b34801561027357600080fd5b5061029260048036038101908080359060200190929190505050610b95565b6040518085815260200180602001848152602001838152602001828103825285818151815260200191508051906020019080838360005b838110156102e45780820151818401526020810190506102c9565b50505050905090810190601f1680156103115780820380516001836020036101000a031916815260200191505b509550505050505060405180910390f35b34801561032e57600080fd5b506103576004803603810190808035906020019092919080359060200190929190505050610c5d565b604051808215151515815260200191505060405180910390f35b34801561037d57600080fd5b50610386610d79565b604051808273ffffffffffffffffffffffffffffffffffffffff1673ffffffffffffffffffffffffffffffffffffffff16815260200191505060405180910390f35b3480156103d457600080fd5b506103dd610d9f565b005b3480156103eb57600080fd5b506103f4610e36565b005b34801561040257600080fd5b5061042b6004803603810190808035906020019092919080359060200190929190505050610ef6565b604051808215151515815260200191505060405180910390f35b34801561045157600080fd5b5061045a610fe2565b604051808273ffffffffffffffffffffffffffffffffffffffff1673ffffffffffffffffffffffffffffffffffffffff16815260200191505060405180910390f35b3480156104a857600080fd5b506104c760048036038101908080359060200190929190505050611007565b6040518080602001848152602001838152602001828103825285818151815260200191508051906020019080838360005b838110156105135780820151818401526020810190506104f8565b50505050905090810190601f1680156105405780820380516001836020036101000a031916815260200191505b5094505050505060405180910390f35b34801561055c57600080fd5b506105656110f9565b6040518082815260200191505060405180910390f35b34801561058757600080fd5b5061060060048036038101908080359060200190929190803590602001908201803590602001908080601f016020809104026020016040519081016040528093929190818152602001838380828437820191505050505050919291929080359060200190929190803590602001909291905050506110ff565b604051808215151515815260200191505060405180910390f35b34801561062657600080fd5b5061064f600480360381019080803590602001909291908035906020019092919050505061126a565b604051808215151515815260200191505060405180910390f35b34801561067557600080fd5b506106aa600480360381019080803573ffffffffffffffffffffffffffffffffffffffff169060200190929190505050611386565b6040518082815260200191505060405180910390f35b3480156106cc57600080fd5b50610701600480360381019080803573ffffffffffffffffffffffffffffffffffffffff1690602001909291905050506113cf565b005b610737600480360381019080803573ffffffffffffffffffffffffffffffffffffffff169060200190929190505050611524565b005b600080600060149054906101000a900460ff1615151561075857600080fd5b61078183600560008781526020019081526020016000206002015461166b90919063ffffffff16565b90508034101580156107a9575082600560008681526020019081526020016000206003015410155b1561087a576107d9600260009054906101000a900473ffffffffffffffffffffffffffffffffffffffff16611524565b6108028360056000878152602001908152602001600020600301546116a390919063ffffffff16565b60056000868152602001908152602001600020600301819055507f350df6fcc944b226b77efc36902e19b43c566d75173622086e809d46dfbc2220846005600087815260200190815260200160002060030154604051808381526020018281526020019250505060405180910390a16001915061087f565b600091505b5092915050565b6000809054906101000a900473ffffffffffffffffffffffffffffffffffffffff1673ffffffffffffffffffffffffffffffffffffffff163373ffffffffffffffffffffffffffffffffffffffff161415156108e157600080fd5b600060149054906101000a900460ff1615156108fc57600080fd5b60008060146101000a81548160ff0219169083151502179055507f7805862f689e2f13df9f062ff482ad3ad112aca9e0847911ed832e158c525b3360405160405180910390a1565b60008060009054906101000a900473ffffffffffffffffffffffffffffffffffffffff1673ffffffffffffffffffffffffffffffffffffffff163373ffffffffffffffffffffffffffffffffffffffff161415156109a157600080fd5b600160008373ffffffffffffffffffffffffffffffffffffffff1673ffffffffffffffffffffffffffffffffffffffff168152602001908152602001600020549050803073ffffffffffffffffffffffffffffffffffffffff163110151515610a0657fe5b6000600160008473ffffffffffffffffffffffffffffffffffffffff1673ffffffffffffffffffffffffffffffffffffffff168152602001908152602001600020819055508173ffffffffffffffffffffffffffffffffffffffff166108fc829081150290604051600060405180830381858888f19350505050158015610a91573d6000803e3d6000fd5b508173ffffffffffffffffffffffffffffffffffffffff167f7084f5476618d8e60b11ef0d7d3f06914655adb8793e28ff7f018d4c76d505d5826040518082815260200191505060405180910390a25050565b60038054600181600116156101000203166002900480601f016020809104026020016040519081016040528092919081815260200182805460018160011615610100020316600290048015610b7a5780601f10610b4f57610100808354040283529160200191610b7a565b820191906000526020600020905b815481529060010190602001808311610b5d57829003601f168201915b505050505081565b600060149054906101000a900460ff1681565b6005602052806000526040600020600091509050806000015490806001018054600181600116156101000203166002900480601f016020809104026020016040519081016040528092919081815260200182805460018160011615610100020316600290048015610c475780601f10610c1c57610100808354040283529160200191610c47565b820191906000526020600020905b815481529060010190602001808311610c2a57829003601f168201915b5050505050908060020154908060030154905084565b6000600260009054906101000a900473ffffffffffffffffffffffffffffffffffffffff1673ffffffffffffffffffffffffffffffffffffffff163373ffffffffffffffffffffffffffffffffffffffff16141515610cbb57600080fd5b600060149054906101000a900460ff16151515610cd757600080fd5b610d008260056000868152602001908152602001600020600301546116bc90919063ffffffff16565b60056000858152602001908152602001600020600301819055507febcfd4ce21b6aefd071d3e0f4bfa57e491b5308a1ffb5a3a8e4805e23f00b8d7836005600086815260200190815260200160002060030154604051808381526020018281526020019250505060405180910390a16001905092915050565b600260009054906101000a900473ffffffffffffffffffffffffffffffffffffffff1681565b600260009054906101000a900473ffffffffffffffffffffffffffffffffffffffff1673ffffffffffffffffffffffffffffffffffffffff163373ffffffffffffffffffffffffffffffffffffffff16141515610dfb57600080fd5b600260009054906101000a900473ffffffffffffffffffffffffffffffffffffffff1673ffffffffffffffffffffffffffffffffffffffff16ff5b6000809054906101000a900473ffffffffffffffffffffffffffffffffffffffff1673ffffffffffffffffffffffffffffffffffffffff163373ffffffffffffffffffffffffffffffffffffffff16141515610e9157600080fd5b600060149054906101000a900460ff16151515610ead57600080fd5b6001600060146101000a81548160ff0219169083151502179055507f6985a02210a168e66602d3235cb6db0e70f92b3ba4d376a33c0f3d9434bff62560405160405180910390a1565b6000600260009054906101000a900473ffffffffffffffffffffffffffffffffffffffff1673ffffffffffffffffffffffffffffffffffffffff163373ffffffffffffffffffffffffffffffffffffffff16141515610f5457600080fd5b600060149054906101000a900460ff16151515610f7057600080fd5b816005600085815260200190815260200160002060030154101515610fd7577f363750a84abf15912d8e41d236ff55155b4303ed4cf6c3d87e6151d272a3d3b18383604051808381526020018281526020019250505060405180910390a160019050610fdc565b600090505b92915050565b6000809054906101000a900473ffffffffffffffffffffffffffffffffffffffff1681565b60606000806005600085815260200190815260200160002060010160056000868152602001908152602001600020600201546005600087815260200190815260200160002060030154828054600181600116156101000203166002900480601f0160208091040260200160405190810160405280929190818152602001828054600181600116156101000203166002900480156110e55780601f106110ba576101008083540402835291602001916110e5565b820191906000526020600020905b8154815290600101906020018083116110c857829003601f168201915b505050505092509250925092509193909250565b60045481565b60006111096116d8565b6060600260009054906101000a900473ffffffffffffffffffffffffffffffffffffffff1673ffffffffffffffffffffffffffffffffffffffff163373ffffffffffffffffffffffffffffffffffffffff1614151561116757600080fd5b600060149054906101000a900460ff1615151561118357600080fd5b60806040519081016040528088815260200187815260200186815260200185815250915081602001519050600082604001511180156111c457506000815114155b1561125b578160056000898152602001908152602001600020600082015181600001556020820151816001019080519060200190611203929190611701565b5060408201518160020155606082015181600301559050507f4fc9d5acc453e78e01b205af5788a1c62f195c4b5cdc8eb8f1c670863b7e736a876040518082815260200191505060405180910390a160019250611260565b600092505b5050949350505050565b6000600260009054906101000a900473ffffffffffffffffffffffffffffffffffffffff1673ffffffffffffffffffffffffffffffffffffffff163373ffffffffffffffffffffffffffffffffffffffff161415156112c857600080fd5b600060149054906101000a900460ff161515156112e457600080fd5b61130d8260056000868152602001908152602001600020600301546116a390919063ffffffff16565b60056000858152602001908152602001600020600301819055507fd647384cccbd8b477a7b02b9e866072937e9a23b473b9de13fc0c6cb1d392a0a836005600086815260200190815260200160002060030154604051808381526020018281526020019250505060405180910390a16001905092915050565b6000600160008373ffffffffffffffffffffffffffffffffffffffff1673ffffffffffffffffffffffffffffffffffffffff168152602001908152602001600020549050919050565b6000809054906101000a900473ffffffffffffffffffffffffffffffffffffffff1673ffffffffffffffffffffffffffffffffffffffff163373ffffffffffffffffffffffffffffffffffffffff1614151561142a57600080fd5b600073ffffffffffffffffffffffffffffffffffffffff168173ffffffffffffffffffffffffffffffffffffffff161415151561146657600080fd5b8073ffffffffffffffffffffffffffffffffffffffff166000809054906101000a900473ffffffffffffffffffffffffffffffffffffffff1673ffffffffffffffffffffffffffffffffffffffff167f8be0079c531659141344cd1fd0a4f28419497f9722a3daafe3b4186f6b6457e060405160405180910390a3806000806101000a81548173ffffffffffffffffffffffffffffffffffffffff021916908373ffffffffffffffffffffffffffffffffffffffff16021790555050565b60008060009054906101000a900473ffffffffffffffffffffffffffffffffffffffff1673ffffffffffffffffffffffffffffffffffffffff163373ffffffffffffffffffffffffffffffffffffffff1614151561158157600080fd5b3490506115d681600160008573ffffffffffffffffffffffffffffffffffffffff1673ffffffffffffffffffffffffffffffffffffffff168152602001908152602001600020546116bc90919063ffffffff16565b600160008473ffffffffffffffffffffffffffffffffffffffff1673ffffffffffffffffffffffffffffffffffffffff168152602001908152602001600020819055508173ffffffffffffffffffffffffffffffffffffffff167f2da466a7b24304f47e87fa2e1e5a81b9831ce54fec19055ce277ca2f39ba42c4826040518082815260200191505060405180910390a25050565b60008083141561167e576000905061169d565b818302905081838281151561168f57fe5b0414151561169957fe5b8090505b92915050565b60008282111515156116b157fe5b818303905092915050565b600081830190508281101515156116cf57fe5b80905092915050565b608060405190810160405280600081526020016060815260200160008152602001600081525090565b828054600181600116156101000203166002900490600052602060002090601f016020900481019282601f1061174257805160ff1916838001178555611770565b82800160010185558215611770579182015b8281111561176f578251825591602001919060010190611754565b5b50905061177d9190611781565b5090565b6117a391905b8082111561179f576000816000905550600101611787565b5090565b905600a165627a7a723058208b73dcbb72517331b49f28f68542db1843381fd38159cb547914e5c55bdb18730029a165627a7a7230582035b70e57c0ecde90fdb7decc4258d7ca1ce264ac712038318337e76767808ead0029",
  "source": "pragma solidity ^0.4.21;\n\nimport \"./openzeppelin-solidity/Pausable.sol\";\nimport \"./Store.sol\";\n\n/** @title Market Place */\ncontract MarketPlace is Pausable {\n    \n    ///State\n\n    enum Roles { ADMIN, OWNER, SHOPPER }\n\n    mapping(address => bool) public admins;\n    mapping(address => bool) public owners;\n    mapping(address => address[]) public stores;\n\n    address[] public allStores;\n\n    ///Events\n    event NewStore(address store);\n\n    ///Modifiers\n\n    /**\n    * @dev Throws if called by any account other than admin.\n    */\n    modifier onlyAdmin() {\n        require(admins[msg.sender] == true);\n        _;\n    }\n    \n    /**\n    * @dev Throws if called by any account other than owner.\n    */\n    modifier onlyStoreOwner() {\n        require(owners[msg.sender] == true);\n        _;\n    }\n    \n    ///Functions\n\n    /**\n    * @notice Constructor\n    */\n    constructor() public {\n        admins[msg.sender] = true;\n    }\n\n    /**\n    * @notice Add new admin\n    * @param newAdmin Address of the new admin\n    */\n    function addAdmin(address newAdmin) public onlyAdmin whenNotPaused returns (bool success){\n        require(admins[newAdmin] == false);\n        admins[newAdmin] = true;\n        return true;\n    }\n    \n    /**\n    * @notice Add new store owner\n    * @param newOwner Address of the new owner\n    */\n    function addStoreOwner(address newOwner) public onlyAdmin whenNotPaused returns(bool success){\n        require(owners[newOwner] == false);\n        owners[newOwner] = true;\n        return true;\n    }      \n\n    /**\n    * @notice Create new Store\n    * @param storeName Name of the new store\n    */\n    function addStore(string storeName) public onlyStoreOwner whenNotPaused returns(bool success){\n        require(owners[msg.sender] == true, \"Only StoreOwners can create stores\");\n        bytes memory temp = bytes(storeName);\n        require(temp.length != 0, \"Store name can not be empty\");\n        address store = new Store(msg.sender, storeName);\n        stores[msg.sender].push(store);\n        allStores.push(store);\n        emit NewStore(store);\n        return true;\n    }   \n\n    /**\n    * @notice Return the role of the active user\n    */\n    function getUserRole() public view returns (Roles role){\n        if (admins[msg.sender] == true){\n            return Roles.ADMIN;\n        }\n        if (owners[msg.sender] == true){\n            return Roles.OWNER;\n        }\n        return Roles.SHOPPER;\n    }\n\n    /**\n    * @notice Return all the stores in case of a SHOPPER or all store of the OWNER in other case.\n    */\n    function getStores() public view returns (address[]){\n        if (getUserRole() == Roles.SHOPPER){\n            return allStores;\n        } else {\n            return stores[msg.sender];\n        }\n    }  \n    \n}",
  "sourcePath": "/Users/goliat/Code/Ethereum/marketplace/contracts/MarketPlace.sol",
  "compiler": {
    "name": "solc",
    "version": "0.4.24+commit.e67f0147.Emscripten.clang"
  },
  "schemaVersion": "2.0.1",
  "updatedAt": "2018-08-27T09:02:23.829Z"
}