{
  "contractName": "MarketPlace",
  "abi": [
    {
      "constant": true,
      "inputs": [
        {
          "name": "",
          "type": "address"
        }
      ],
      "name": "owners",
      "outputs": [
        {
          "name": "",
          "type": "bool"
        }
      ],
      "payable": false,
      "stateMutability": "view",
      "type": "function"
    },
    {
      "constant": true,
      "inputs": [
        {
          "name": "",
          "type": "uint256"
        }
      ],
      "name": "allStores",
      "outputs": [
        {
          "name": "",
          "type": "address"
        }
      ],
      "payable": false,
      "stateMutability": "view",
      "type": "function"
    },
    {
      "constant": false,
      "inputs": [],
      "name": "unpause",
      "outputs": [],
      "payable": false,
      "stateMutability": "nonpayable",
      "type": "function"
    },
    {
      "constant": true,
      "inputs": [
        {
          "name": "",
          "type": "address"
        }
      ],
      "name": "admins",
      "outputs": [
        {
          "name": "",
          "type": "bool"
        }
      ],
      "payable": false,
      "stateMutability": "view",
      "type": "function"
    },
    {
      "constant": true,
      "inputs": [
        {
          "name": "",
          "type": "address"
        },
        {
          "name": "",
          "type": "uint256"
        }
      ],
      "name": "stores",
      "outputs": [
        {
          "name": "",
          "type": "address"
        }
      ],
      "payable": false,
      "stateMutability": "view",
      "type": "function"
    },
    {
      "constant": true,
      "inputs": [],
      "name": "paused",
      "outputs": [
        {
          "name": "",
          "type": "bool"
        }
      ],
      "payable": false,
      "stateMutability": "view",
      "type": "function"
    },
    {
      "constant": false,
      "inputs": [],
      "name": "pause",
      "outputs": [],
      "payable": false,
      "stateMutability": "nonpayable",
      "type": "function"
    },
    {
      "constant": true,
      "inputs": [],
      "name": "owner",
      "outputs": [
        {
          "name": "",
          "type": "address"
        }
      ],
      "payable": false,
      "stateMutability": "view",
      "type": "function"
    },
    {
      "constant": false,
      "inputs": [
        {
          "name": "newOwner",
          "type": "address"
        }
      ],
      "name": "transferOwnership",
      "outputs": [],
      "payable": false,
      "stateMutability": "nonpayable",
      "type": "function"
    },
    {
      "inputs": [],
      "payable": false,
      "stateMutability": "nonpayable",
      "type": "constructor"
    },
    {
      "payable": true,
      "stateMutability": "payable",
      "type": "fallback"
    },
    {
      "anonymous": false,
      "inputs": [
        {
          "indexed": false,
          "name": "store",
          "type": "address"
        }
      ],
      "name": "NewStore",
      "type": "event"
    },
    {
      "anonymous": false,
      "inputs": [],
      "name": "Pause",
      "type": "event"
    },
    {
      "anonymous": false,
      "inputs": [],
      "name": "Unpause",
      "type": "event"
    },
    {
      "anonymous": false,
      "inputs": [
        {
          "indexed": true,
          "name": "previousOwner",
          "type": "address"
        },
        {
          "indexed": true,
          "name": "newOwner",
          "type": "address"
        }
      ],
      "name": "OwnershipTransferred",
      "type": "event"
    },
    {
      "constant": false,
      "inputs": [
        {
          "name": "newAdmin",
          "type": "address"
        }
      ],
      "name": "addAdmin",
      "outputs": [
        {
          "name": "success",
          "type": "bool"
        }
      ],
      "payable": false,
      "stateMutability": "nonpayable",
      "type": "function"
    },
    {
      "constant": false,
      "inputs": [
        {
          "name": "newOwner",
          "type": "address"
        }
      ],
      "name": "addStoreOwner",
      "outputs": [
        {
          "name": "success",
          "type": "bool"
        }
      ],
      "payable": false,
      "stateMutability": "nonpayable",
      "type": "function"
    },
    {
      "constant": false,
      "inputs": [
        {
          "name": "storeName",
          "type": "string"
        }
      ],
      "name": "addStore",
      "outputs": [
        {
          "name": "success",
          "type": "bool"
        }
      ],
      "payable": false,
      "stateMutability": "nonpayable",
      "type": "function"
    },
    {
      "constant": true,
      "inputs": [],
      "name": "getUserRole",
      "outputs": [
        {
          "name": "role",
          "type": "uint8"
        }
      ],
      "payable": false,
      "stateMutability": "view",
      "type": "function"
    },
    {
      "constant": true,
      "inputs": [],
      "name": "getStores",
      "outputs": [
        {
          "name": "",
          "type": "address[]"
        }
      ],
      "payable": false,
      "stateMutability": "view",
      "type": "function"
    }
  ],
  "bytecode": "0x608060405260008060146101000a81548160ff02191690831515021790555034801561002a57600080fd5b50336000806101000a81548173ffffffffffffffffffffffffffffffffffffffff021916908373ffffffffffffffffffffffffffffffffffffffff16021790555060018060003373ffffffffffffffffffffffffffffffffffffffff1673ffffffffffffffffffffffffffffffffffffffff16815260200190815260200160002060006101000a81548160ff0219169083151502179055506128c9806100d16000396000f3006080604052600436106100d0576000357c0100000000000000000000000000000000000000000000000000000000900463ffffffff168063022914a7146100d557806332cfc484146101305780633f4ba83a1461019d578063429b62e5146101b457806354121c741461020f5780635c975abb1461029c5780635dc917f0146102cb578063662feffc1461033757806370480275146103b85780638456cb59146104135780638da5cb5b1461042a5780639adeb5f114610481578063bf04a10d146104dc578063f2fde38b14610515575b600080fd5b3480156100e157600080fd5b50610116600480360381019080803573ffffffffffffffffffffffffffffffffffffffff169060200190929190505050610558565b604051808215151515815260200191505060405180910390f35b34801561013c57600080fd5b5061015b60048036038101908080359060200190929190505050610578565b604051808273ffffffffffffffffffffffffffffffffffffffff1673ffffffffffffffffffffffffffffffffffffffff16815260200191505060405180910390f35b3480156101a957600080fd5b506101b26105b6565b005b3480156101c057600080fd5b506101f5600480360381019080803573ffffffffffffffffffffffffffffffffffffffff169060200190929190505050610674565b604051808215151515815260200191505060405180910390f35b34801561021b57600080fd5b5061025a600480360381019080803573ffffffffffffffffffffffffffffffffffffffff16906020019092919080359060200190929190505050610694565b604051808273ffffffffffffffffffffffffffffffffffffffff1673ffffffffffffffffffffffffffffffffffffffff16815260200191505060405180910390f35b3480156102a857600080fd5b506102b16106e1565b604051808215151515815260200191505060405180910390f35b3480156102d757600080fd5b506102e06106f4565b6040518080602001828103825283818151815260200191508051906020019060200280838360005b83811015610323578082015181840152602081019050610308565b505050509050019250505060405180910390f35b34801561034357600080fd5b5061039e600480360381019080803590602001908201803590602001908080601f0160208091040260200160405190810160405280939291908181526020018383808284378201915050505050509192919290505050610873565b604051808215151515815260200191505060405180910390f35b3480156103c457600080fd5b506103f9600480360381019080803573ffffffffffffffffffffffffffffffffffffffff169060200190929190505050610ca1565b604051808215151515815260200191505060405180910390f35b34801561041f57600080fd5b50610428610e3c565b005b34801561043657600080fd5b5061043f610efc565b604051808273ffffffffffffffffffffffffffffffffffffffff1673ffffffffffffffffffffffffffffffffffffffff16815260200191505060405180910390f35b34801561048d57600080fd5b506104c2600480360381019080803573ffffffffffffffffffffffffffffffffffffffff169060200190929190505050610f21565b604051808215151515815260200191505060405180910390f35b3480156104e857600080fd5b506104f16110bd565b6040518082600281111561050157fe5b60ff16815260200191505060405180910390f35b34801561052157600080fd5b50610556600480360381019080803573ffffffffffffffffffffffffffffffffffffffff16906020019092919050505061118b565b005b60026020528060005260406000206000915054906101000a900460ff1681565b60048181548110151561058757fe5b906000526020600020016000915054906101000a900473ffffffffffffffffffffffffffffffffffffffff1681565b6000809054906101000a900473ffffffffffffffffffffffffffffffffffffffff1673ffffffffffffffffffffffffffffffffffffffff163373ffffffffffffffffffffffffffffffffffffffff1614151561061157600080fd5b600060149054906101000a900460ff16151561062c57600080fd5b60008060146101000a81548160ff0219169083151502179055507f7805862f689e2f13df9f062ff482ad3ad112aca9e0847911ed832e158c525b3360405160405180910390a1565b60016020528060005260406000206000915054906101000a900460ff1681565b6003602052816000526040600020818154811015156106af57fe5b906000526020600020016000915091509054906101000a900473ffffffffffffffffffffffffffffffffffffffff1681565b600060149054906101000a900460ff1681565b606060028081111561070257fe5b61070a6110bd565b600281111561071557fe5b14156107a957600480548060200260200160405190810160405280929190818152602001828054801561079d57602002820191906000526020600020905b8160009054906101000a900473ffffffffffffffffffffffffffffffffffffffff1673ffffffffffffffffffffffffffffffffffffffff1681526020019060010190808311610753575b50505050509050610870565b600360003373ffffffffffffffffffffffffffffffffffffffff1673ffffffffffffffffffffffffffffffffffffffff16815260200190815260200160002080548060200260200160405190810160405280929190818152602001828054801561086857602002820191906000526020600020905b8160009054906101000a900473ffffffffffffffffffffffffffffffffffffffff1673ffffffffffffffffffffffffffffffffffffffff168152602001906001019080831161081e575b505050505090505b90565b60006060600060011515600260003373ffffffffffffffffffffffffffffffffffffffff1673ffffffffffffffffffffffffffffffffffffffff16815260200190815260200160002060009054906101000a900460ff1615151415156108d857600080fd5b600060149054906101000a900460ff161515156108f457600080fd5b60011515600260003373ffffffffffffffffffffffffffffffffffffffff1673ffffffffffffffffffffffffffffffffffffffff16815260200190815260200160002060009054906101000a900460ff1615151415156109e2576040517f08c379a00000000000000000000000000000000000000000000000000000000081526004018080602001828103825260228152602001807f4f6e6c792053746f72654f776e6572732063616e206372656174652073746f7281526020017f657300000000000000000000000000000000000000000000000000000000000081525060400191505060405180910390fd5b8391506000825114151515610a5f576040517f08c379a000000000000000000000000000000000000000000000000000000000815260040180806020018281038252601b8152602001807f53746f7265206e616d652063616e206e6f7420626520656d707479000000000081525060200191505060405180910390fd5b3384610a696112e0565b808373ffffffffffffffffffffffffffffffffffffffff1673ffffffffffffffffffffffffffffffffffffffff16815260200180602001828103825283818151815260200191508051906020019080838360005b83811015610ad8578082015181840152602081019050610abd565b50505050905090810190601f168015610b055780820380516001836020036101000a031916815260200191505b509350505050604051809103906000f080158015610b27573d6000803e3d6000fd5b509050600360003373ffffffffffffffffffffffffffffffffffffffff1673ffffffffffffffffffffffffffffffffffffffff1681526020019081526020016000208190806001815401808255809150509060018203906000526020600020016000909192909190916101000a81548173ffffffffffffffffffffffffffffffffffffffff021916908373ffffffffffffffffffffffffffffffffffffffff1602179055505060048190806001815401808255809150509060018203906000526020600020016000909192909190916101000a81548173ffffffffffffffffffffffffffffffffffffffff021916908373ffffffffffffffffffffffffffffffffffffffff160217905550507f17689f18ea745d83191e8d8bea2d3d808c05700212201460eaec9dd550014d5981604051808273ffffffffffffffffffffffffffffffffffffffff1673ffffffffffffffffffffffffffffffffffffffff16815260200191505060405180910390a1600192505050919050565b600060011515600160003373ffffffffffffffffffffffffffffffffffffffff1673ffffffffffffffffffffffffffffffffffffffff16815260200190815260200160002060009054906101000a900460ff161515141515610d0257600080fd5b600060149054906101000a900460ff16151515610d1e57600080fd5b60001515600160008473ffffffffffffffffffffffffffffffffffffffff1673ffffffffffffffffffffffffffffffffffffffff16815260200190815260200160002060009054906101000a900460ff161515141515610d7d57600080fd5b60001515600260008473ffffffffffffffffffffffffffffffffffffffff1673ffffffffffffffffffffffffffffffffffffffff16815260200190815260200160002060009054906101000a900460ff161515141515610ddc57600080fd5b60018060008473ffffffffffffffffffffffffffffffffffffffff1673ffffffffffffffffffffffffffffffffffffffff16815260200190815260200160002060006101000a81548160ff02191690831515021790555060019050919050565b6000809054906101000a900473ffffffffffffffffffffffffffffffffffffffff1673ffffffffffffffffffffffffffffffffffffffff163373ffffffffffffffffffffffffffffffffffffffff16141515610e9757600080fd5b600060149054906101000a900460ff16151515610eb357600080fd5b6001600060146101000a81548160ff0219169083151502179055507f6985a02210a168e66602d3235cb6db0e70f92b3ba4d376a33c0f3d9434bff62560405160405180910390a1565b6000809054906101000a900473ffffffffffffffffffffffffffffffffffffffff1681565b600060011515600160003373ffffffffffffffffffffffffffffffffffffffff1673ffffffffffffffffffffffffffffffffffffffff16815260200190815260200160002060009054906101000a900460ff161515141515610f8257600080fd5b600060149054906101000a900460ff16151515610f9e57600080fd5b60001515600260008473ffffffffffffffffffffffffffffffffffffffff1673ffffffffffffffffffffffffffffffffffffffff16815260200190815260200160002060009054906101000a900460ff161515141515610ffd57600080fd5b60001515600160008473ffffffffffffffffffffffffffffffffffffffff1673ffffffffffffffffffffffffffffffffffffffff16815260200190815260200160002060009054906101000a900460ff16151514151561105c57600080fd5b6001600260008473ffffffffffffffffffffffffffffffffffffffff1673ffffffffffffffffffffffffffffffffffffffff16815260200190815260200160002060006101000a81548160ff02191690831515021790555060019050919050565b600060011515600160003373ffffffffffffffffffffffffffffffffffffffff1673ffffffffffffffffffffffffffffffffffffffff16815260200190815260200160002060009054906101000a900460ff16151514156111215760009050611188565b60011515600260003373ffffffffffffffffffffffffffffffffffffffff1673ffffffffffffffffffffffffffffffffffffffff16815260200190815260200160002060009054906101000a900460ff16151514156111835760019050611188565b600290505b90565b6000809054906101000a900473ffffffffffffffffffffffffffffffffffffffff1673ffffffffffffffffffffffffffffffffffffffff163373ffffffffffffffffffffffffffffffffffffffff161415156111e657600080fd5b600073ffffffffffffffffffffffffffffffffffffffff168173ffffffffffffffffffffffffffffffffffffffff161415151561122257600080fd5b8073ffffffffffffffffffffffffffffffffffffffff166000809054906101000a900473ffffffffffffffffffffffffffffffffffffffff1673ffffffffffffffffffffffffffffffffffffffff167f8be0079c531659141344cd1fd0a4f28419497f9722a3daafe3b4186f6b6457e060405160405180910390a3806000806101000a81548173ffffffffffffffffffffffffffffffffffffffff021916908373ffffffffffffffffffffffffffffffffffffffff16021790555050565b6040516115ad806112f1833901905600608060405260008060146101000a81548160ff0219169083151502179055503480156200002b57600080fd5b50604051620015ad380380620015ad8339810180604052810190808051906020019092919080518201929190505050336000806101000a81548173ffffffffffffffffffffffffffffffffffffffff021916908373ffffffffffffffffffffffffffffffffffffffff160217905550816000806101000a81548173ffffffffffffffffffffffffffffffffffffffff021916908373ffffffffffffffffffffffffffffffffffffffff1602179055508060019080519060200190620000f2929190620000fb565b505050620001aa565b828054600181600116156101000203166002900490600052602060002090601f016020900481019282601f106200013e57805160ff19168380011785556200016f565b828001600101855582156200016f579182015b828111156200016e57825182559160200191906001019062000151565b5b5090506200017e919062000182565b5090565b620001a791905b80821115620001a357600081600090555060010162000189565b5090565b90565b6113f380620001ba6000396000f3006080604052600436106100db576000357c0100000000000000000000000000000000000000000000000000000000900463ffffffff1680632e1a7d4d146100e05780632faa393d1461010d5780633f4ba83a1461014f578063521936e6146101665780635c975abb146101f65780637acc0b20146102255780637edd19a2146102e05780638456cb591461032f57806387a1e927146103465780638da5cb5b14610395578063b9db15b4146103ec578063bf5c88ff146104a0578063c27ed2a2146104cb578063d4ae6c201461056a578063f2fde38b146105b9575b600080fd5b3480156100ec57600080fd5b5061010b600480360381019080803590602001909291905050506105fc565b005b6101356004803603810190808035906020019092919080359060200190929190505050610722565b604051808215151515815260200191505060405180910390f35b34801561015b57600080fd5b5061016461085f565b005b34801561017257600080fd5b5061017b61091d565b6040518080602001828103825283818151815260200191508051906020019080838360005b838110156101bb5780820151818401526020810190506101a0565b50505050905090810190601f1680156101e85780820380516001836020036101000a031916815260200191505b509250505060405180910390f35b34801561020257600080fd5b5061020b6109bb565b604051808215151515815260200191505060405180910390f35b34801561023157600080fd5b50610250600480360381019080803590602001909291905050506109ce565b6040518085815260200180602001848152602001838152602001828103825285818151815260200191508051906020019080838360005b838110156102a2578082015181840152602081019050610287565b50505050905090810190601f1680156102cf5780820380516001836020036101000a031916815260200191505b509550505050505060405180910390f35b3480156102ec57600080fd5b506103156004803603810190808035906020019092919080359060200190929190505050610a96565b604051808215151515815260200191505060405180910390f35b34801561033b57600080fd5b50610344610bb1565b005b34801561035257600080fd5b5061037b6004803603810190808035906020019092919080359060200190929190505050610c71565b604051808215151515815260200191505060405180910390f35b3480156103a157600080fd5b506103aa610d95565b604051808273ffffffffffffffffffffffffffffffffffffffff1673ffffffffffffffffffffffffffffffffffffffff16815260200191505060405180910390f35b3480156103f857600080fd5b5061041760048036038101908080359060200190929190505050610dba565b6040518080602001848152602001838152602001828103825285818151815260200191508051906020019080838360005b83811015610463578082015181840152602081019050610448565b50505050905090810190601f1680156104905780820380516001836020036101000a031916815260200191505b5094505050505060405180910390f35b3480156104ac57600080fd5b506104b5610eac565b6040518082815260200191505060405180910390f35b3480156104d757600080fd5b5061055060048036038101908080359060200190929190803590602001908201803590602001908080601f01602080910402602001604051908101604052809392919081815260200183838082843782019150505050505091929192908035906020019092919080359060200190929190505050610eb2565b604051808215151515815260200191505060405180910390f35b34801561057657600080fd5b5061059f600480360381019080803590602001909291908035906020019092919050505061101c565b604051808215151515815260200191505060405180910390f35b3480156105c557600080fd5b506105fa600480360381019080803573ffffffffffffffffffffffffffffffffffffffff169060200190929190505050611137565b005b6000809054906101000a900473ffffffffffffffffffffffffffffffffffffffff1673ffffffffffffffffffffffffffffffffffffffff163373ffffffffffffffffffffffffffffffffffffffff1614151561065757600080fd5b806002541015151561066557fe5b61067a8160025461128c90919063ffffffff16565b6002819055506000809054906101000a900473ffffffffffffffffffffffffffffffffffffffff1673ffffffffffffffffffffffffffffffffffffffff166108fc829081150290604051600060405180830381858888f193505050501580156106e7573d6000803e3d6000fd5b507f2642618e08db86d4b058009edb971811593dcf16025f69a1566ea167765a1b1b816040518082815260200191505060405180910390a150565b600080600060149054906101000a900460ff1615151561074157600080fd5b61076a8360036000878152602001908152602001600020600201546112a590919063ffffffff16565b9050803410158015610792575082600360008681526020019081526020016000206003015410155b15610853576107c083600360008781526020019081526020016000206003015461128c90919063ffffffff16565b60036000868152602001908152602001600020600301819055506107ef346002546112dd90919063ffffffff16565b6002819055507f350df6fcc944b226b77efc36902e19b43c566d75173622086e809d46dfbc2220846003600087815260200190815260200160002060030154604051808381526020018281526020019250505060405180910390a160019150610858565b600091505b5092915050565b6000809054906101000a900473ffffffffffffffffffffffffffffffffffffffff1673ffffffffffffffffffffffffffffffffffffffff163373ffffffffffffffffffffffffffffffffffffffff161415156108ba57600080fd5b600060149054906101000a900460ff1615156108d557600080fd5b60008060146101000a81548160ff0219169083151502179055507f7805862f689e2f13df9f062ff482ad3ad112aca9e0847911ed832e158c525b3360405160405180910390a1565b60018054600181600116156101000203166002900480601f0160208091040260200160405190810160405280929190818152602001828054600181600116156101000203166002900480156109b35780601f10610988576101008083540402835291602001916109b3565b820191906000526020600020905b81548152906001019060200180831161099657829003601f168201915b505050505081565b600060149054906101000a900460ff1681565b6003602052806000526040600020600091509050806000015490806001018054600181600116156101000203166002900480601f016020809104026020016040519081016040528092919081815260200182805460018160011615610100020316600290048015610a805780601f10610a5557610100808354040283529160200191610a80565b820191906000526020600020905b815481529060010190602001808311610a6357829003601f168201915b5050505050908060020154908060030154905084565b60008060009054906101000a900473ffffffffffffffffffffffffffffffffffffffff1673ffffffffffffffffffffffffffffffffffffffff163373ffffffffffffffffffffffffffffffffffffffff16141515610af357600080fd5b600060149054906101000a900460ff16151515610b0f57600080fd5b610b388260036000868152602001908152602001600020600301546112dd90919063ffffffff16565b60036000858152602001908152602001600020600301819055507febcfd4ce21b6aefd071d3e0f4bfa57e491b5308a1ffb5a3a8e4805e23f00b8d7836003600086815260200190815260200160002060030154604051808381526020018281526020019250505060405180910390a16001905092915050565b6000809054906101000a900473ffffffffffffffffffffffffffffffffffffffff1673ffffffffffffffffffffffffffffffffffffffff163373ffffffffffffffffffffffffffffffffffffffff16141515610c0c57600080fd5b600060149054906101000a900460ff16151515610c2857600080fd5b6001600060146101000a81548160ff0219169083151502179055507f6985a02210a168e66602d3235cb6db0e70f92b3ba4d376a33c0f3d9434bff62560405160405180910390a1565b60008060009054906101000a900473ffffffffffffffffffffffffffffffffffffffff1673ffffffffffffffffffffffffffffffffffffffff163373ffffffffffffffffffffffffffffffffffffffff16141515610cce57600080fd5b600060149054906101000a900460ff16151515610cea57600080fd5b816003600085815260200190815260200160002060030154101515610d4e577ffdec5274376cf6cd4e159679b84c54fc2508995827f0bce70c6e13a6359d36e26001604051808215151515815260200191505060405180910390a160019050610d8f565b7ffdec5274376cf6cd4e159679b84c54fc2508995827f0bce70c6e13a6359d36e26000604051808215151515815260200191505060405180910390a1600090505b92915050565b6000809054906101000a900473ffffffffffffffffffffffffffffffffffffffff1681565b60606000806003600085815260200190815260200160002060010160036000868152602001908152602001600020600201546003600087815260200190815260200160002060030154828054600181600116156101000203166002900480601f016020809104026020016040519081016040528092919081815260200182805460018160011615610100020316600290048015610e985780601f10610e6d57610100808354040283529160200191610e98565b820191906000526020600020905b815481529060010190602001808311610e7b57829003601f168201915b505050505092509250925092509193909250565b60025481565b6000610ebc6112f9565b60606000809054906101000a900473ffffffffffffffffffffffffffffffffffffffff1673ffffffffffffffffffffffffffffffffffffffff163373ffffffffffffffffffffffffffffffffffffffff16141515610f1957600080fd5b600060149054906101000a900460ff16151515610f3557600080fd5b6080604051908101604052808881526020018781526020018681526020018581525091508160200151905060008260400151118015610f7657506000815114155b1561100d578160036000898152602001908152602001600020600082015181600001556020820151816001019080519060200190610fb5929190611322565b5060408201518160020155606082015181600301559050507f4fc9d5acc453e78e01b205af5788a1c62f195c4b5cdc8eb8f1c670863b7e736a876040518082815260200191505060405180910390a160019250611012565b600092505b5050949350505050565b60008060009054906101000a900473ffffffffffffffffffffffffffffffffffffffff1673ffffffffffffffffffffffffffffffffffffffff163373ffffffffffffffffffffffffffffffffffffffff1614151561107957600080fd5b600060149054906101000a900460ff1615151561109557600080fd5b6110be82600360008681526020019081526020016000206003015461128c90919063ffffffff16565b60036000858152602001908152602001600020600301819055507fd647384cccbd8b477a7b02b9e866072937e9a23b473b9de13fc0c6cb1d392a0a836003600086815260200190815260200160002060030154604051808381526020018281526020019250505060405180910390a16001905092915050565b6000809054906101000a900473ffffffffffffffffffffffffffffffffffffffff1673ffffffffffffffffffffffffffffffffffffffff163373ffffffffffffffffffffffffffffffffffffffff1614151561119257600080fd5b600073ffffffffffffffffffffffffffffffffffffffff168173ffffffffffffffffffffffffffffffffffffffff16141515156111ce57600080fd5b8073ffffffffffffffffffffffffffffffffffffffff166000809054906101000a900473ffffffffffffffffffffffffffffffffffffffff1673ffffffffffffffffffffffffffffffffffffffff167f8be0079c531659141344cd1fd0a4f28419497f9722a3daafe3b4186f6b6457e060405160405180910390a3806000806101000a81548173ffffffffffffffffffffffffffffffffffffffff021916908373ffffffffffffffffffffffffffffffffffffffff16021790555050565b600082821115151561129a57fe5b818303905092915050565b6000808314156112b857600090506112d7565b81830290508183828115156112c957fe5b041415156112d357fe5b8090505b92915050565b600081830190508281101515156112f057fe5b80905092915050565b608060405190810160405280600081526020016060815260200160008152602001600081525090565b828054600181600116156101000203166002900490600052602060002090601f016020900481019282601f1061136357805160ff1916838001178555611391565b82800160010185558215611391579182015b82811115611390578251825591602001919060010190611375565b5b50905061139e91906113a2565b5090565b6113c491905b808211156113c05760008160009055506001016113a8565b5090565b905600a165627a7a7230582058cedaa64a6e7825da3d34e023bc14c4144cf49b4c694c62c64a9b2f837d821d0029a165627a7a723058203f23c1e1e2accf30a56c5b1ba0e0ec79a9703e6431a87e6756ce3a62f876494f0029",
  "source": "pragma solidity ^0.4.21;\n\nimport \"./openzeppelin-solidity/Pausable.sol\";\nimport \"./Store.sol\";\n\n/** @title Market Place */\ncontract MarketPlace is Pausable {\n    \n    ///State\n\n    enum Roles { ADMIN, OWNER, SHOPPER }\n\n    mapping(address => bool) public admins;\n    mapping(address => bool) public owners;\n    mapping(address => address[]) public stores;\n\n    address[] public allStores;\n\n    ///Events\n    event NewStore(address store);\n\n    ///Modifiers\n\n    /**\n    * @dev Throws if called by any account other than admin.\n    */\n    modifier onlyAdmin() {\n        require(admins[msg.sender] == true);\n        _;\n    }\n    \n    /**\n    * @dev Throws if called by any account other than owner.\n    */\n    modifier onlyStoreOwner() {\n        require(owners[msg.sender] == true);\n        _;\n    }\n    \n    ///Functions\n\n    /**\n    * @notice Constructor\n    */\n    constructor() public {\n        admins[msg.sender] = true;\n    }\n\n    /**\n    * @notice Add new admin\n    * @param newAdmin Address of the new admin\n    */\n    function addAdmin(address newAdmin) public onlyAdmin whenNotPaused returns (bool success){\n        require(admins[newAdmin] == false);\n        require(owners[newAdmin] == false);\n        admins[newAdmin] = true;\n        return true;\n    }\n    \n    /**\n    * @notice Add new store owner\n    * @param newOwner Address of the new owner\n    */\n    function addStoreOwner(address newOwner) public onlyAdmin whenNotPaused returns(bool success){\n        require(owners[newOwner] == false);\n        require(admins[newOwner] == false);\n        owners[newOwner] = true;\n        return true;\n    }      \n\n    /**\n    * @notice Create new Store\n    * @param storeName Name of the new store\n    */\n    function addStore(string storeName) public onlyStoreOwner whenNotPaused returns(bool success){\n        require(owners[msg.sender] == true, \"Only StoreOwners can create stores\");\n        bytes memory temp = bytes(storeName);\n        require(temp.length != 0, \"Store name can not be empty\");\n        address store = new Store(msg.sender, storeName);\n        stores[msg.sender].push(store);\n        allStores.push(store);\n        emit NewStore(store);\n        return true;\n    }   \n\n    /**\n    * @notice Return the role of the active user\n    */\n    function getUserRole() public view returns (Roles role){\n        if (admins[msg.sender] == true){\n            return Roles.ADMIN;\n        }\n        if (owners[msg.sender] == true){\n            return Roles.OWNER;\n        }\n        return Roles.SHOPPER;\n    }\n\n    /**\n    * @notice Return all the stores in case of a SHOPPER or all store of the OWNER in other case.\n    */\n    function getStores() public view returns (address[]){\n        if (getUserRole() == Roles.SHOPPER){\n            return allStores;\n        } else {\n            return stores[msg.sender];\n        }\n    }  \n\n    function() public payable {\n        revert();\n    }\n    \n}",
  "sourcePath": "/Users/goliat/Code/Ethereum/marketplace/contracts/MarketPlace.sol",
  "compiler": {
    "name": "solc",
    "version": "0.4.24+commit.e67f0147.Emscripten.clang"
  },
  "schemaVersion": "2.0.1",
  "updatedAt": "2018-08-28T07:32:20.965Z"
}