{
  "contractName": "Store",
  "abi": [
    {
      "constant": false,
      "inputs": [],
      "name": "unpause",
      "outputs": [],
      "payable": false,
      "stateMutability": "nonpayable",
      "type": "function"
    },
    {
      "constant": false,
      "inputs": [
        {
          "name": "_payee",
          "type": "address"
        }
      ],
      "name": "withdraw",
      "outputs": [],
      "payable": false,
      "stateMutability": "nonpayable",
      "type": "function"
    },
    {
      "constant": true,
      "inputs": [],
      "name": "storeName",
      "outputs": [
        {
          "name": "",
          "type": "string"
        }
      ],
      "payable": false,
      "stateMutability": "view",
      "type": "function"
    },
    {
      "constant": true,
      "inputs": [],
      "name": "paused",
      "outputs": [
        {
          "name": "",
          "type": "bool"
        }
      ],
      "payable": false,
      "stateMutability": "view",
      "type": "function"
    },
    {
      "constant": true,
      "inputs": [
        {
          "name": "",
          "type": "uint256"
        }
      ],
      "name": "products",
      "outputs": [
        {
          "name": "id",
          "type": "uint256"
        },
        {
          "name": "name",
          "type": "string"
        },
        {
          "name": "price",
          "type": "uint256"
        },
        {
          "name": "stock",
          "type": "uint256"
        }
      ],
      "payable": false,
      "stateMutability": "view",
      "type": "function"
    },
    {
      "constant": true,
      "inputs": [],
      "name": "storeOwner",
      "outputs": [
        {
          "name": "",
          "type": "address"
        }
      ],
      "payable": false,
      "stateMutability": "view",
      "type": "function"
    },
    {
      "constant": false,
      "inputs": [],
      "name": "pause",
      "outputs": [],
      "payable": false,
      "stateMutability": "nonpayable",
      "type": "function"
    },
    {
      "constant": true,
      "inputs": [],
      "name": "owner",
      "outputs": [
        {
          "name": "",
          "type": "address"
        }
      ],
      "payable": false,
      "stateMutability": "view",
      "type": "function"
    },
    {
      "constant": true,
      "inputs": [],
      "name": "storeBalance",
      "outputs": [
        {
          "name": "",
          "type": "uint256"
        }
      ],
      "payable": false,
      "stateMutability": "view",
      "type": "function"
    },
    {
      "constant": true,
      "inputs": [
        {
          "name": "_payee",
          "type": "address"
        }
      ],
      "name": "depositsOf",
      "outputs": [
        {
          "name": "",
          "type": "uint256"
        }
      ],
      "payable": false,
      "stateMutability": "view",
      "type": "function"
    },
    {
      "constant": false,
      "inputs": [
        {
          "name": "newOwner",
          "type": "address"
        }
      ],
      "name": "transferOwnership",
      "outputs": [],
      "payable": false,
      "stateMutability": "nonpayable",
      "type": "function"
    },
    {
      "constant": false,
      "inputs": [
        {
          "name": "_payee",
          "type": "address"
        }
      ],
      "name": "deposit",
      "outputs": [],
      "payable": true,
      "stateMutability": "payable",
      "type": "function"
    },
    {
      "inputs": [
        {
          "name": "_storeOwner",
          "type": "address"
        },
        {
          "name": "_storeName",
          "type": "string"
        }
      ],
      "payable": false,
      "stateMutability": "nonpayable",
      "type": "constructor"
    },
    {
      "payable": true,
      "stateMutability": "payable",
      "type": "fallback"
    },
    {
      "anonymous": false,
      "inputs": [
        {
          "indexed": false,
          "name": "id",
          "type": "uint256"
        }
      ],
      "name": "ProductAdded",
      "type": "event"
    },
    {
      "anonymous": false,
      "inputs": [
        {
          "indexed": false,
          "name": "id",
          "type": "uint256"
        },
        {
          "indexed": false,
          "name": "stock",
          "type": "uint256"
        }
      ],
      "name": "ProductRemoved",
      "type": "event"
    },
    {
      "anonymous": false,
      "inputs": [
        {
          "indexed": false,
          "name": "id",
          "type": "uint256"
        },
        {
          "indexed": false,
          "name": "stock",
          "type": "uint256"
        }
      ],
      "name": "StockUpdated",
      "type": "event"
    },
    {
      "anonymous": false,
      "inputs": [
        {
          "indexed": false,
          "name": "id",
          "type": "uint256"
        },
        {
          "indexed": false,
          "name": "quantity",
          "type": "uint256"
        }
      ],
      "name": "StockAvaiable",
      "type": "event"
    },
    {
      "anonymous": false,
      "inputs": [
        {
          "indexed": false,
          "name": "id",
          "type": "uint256"
        },
        {
          "indexed": false,
          "name": "stock",
          "type": "uint256"
        }
      ],
      "name": "Purchase",
      "type": "event"
    },
    {
      "anonymous": false,
      "inputs": [
        {
          "indexed": true,
          "name": "payee",
          "type": "address"
        },
        {
          "indexed": false,
          "name": "weiAmount",
          "type": "uint256"
        }
      ],
      "name": "Deposited",
      "type": "event"
    },
    {
      "anonymous": false,
      "inputs": [
        {
          "indexed": true,
          "name": "payee",
          "type": "address"
        },
        {
          "indexed": false,
          "name": "weiAmount",
          "type": "uint256"
        }
      ],
      "name": "Withdrawn",
      "type": "event"
    },
    {
      "anonymous": false,
      "inputs": [],
      "name": "Pause",
      "type": "event"
    },
    {
      "anonymous": false,
      "inputs": [],
      "name": "Unpause",
      "type": "event"
    },
    {
      "anonymous": false,
      "inputs": [
        {
          "indexed": true,
          "name": "previousOwner",
          "type": "address"
        },
        {
          "indexed": true,
          "name": "newOwner",
          "type": "address"
        }
      ],
      "name": "OwnershipTransferred",
      "type": "event"
    },
    {
      "constant": false,
      "inputs": [
        {
          "name": "id",
          "type": "uint256"
        },
        {
          "name": "name",
          "type": "string"
        },
        {
          "name": "price",
          "type": "uint256"
        },
        {
          "name": "stock",
          "type": "uint256"
        }
      ],
      "name": "addProduct",
      "outputs": [
        {
          "name": "success",
          "type": "bool"
        }
      ],
      "payable": false,
      "stateMutability": "nonpayable",
      "type": "function"
    },
    {
      "constant": false,
      "inputs": [
        {
          "name": "id",
          "type": "uint256"
        },
        {
          "name": "amount",
          "type": "uint256"
        }
      ],
      "name": "addStock",
      "outputs": [
        {
          "name": "success",
          "type": "bool"
        }
      ],
      "payable": false,
      "stateMutability": "nonpayable",
      "type": "function"
    },
    {
      "constant": false,
      "inputs": [
        {
          "name": "id",
          "type": "uint256"
        },
        {
          "name": "needed",
          "type": "uint256"
        }
      ],
      "name": "checkStock",
      "outputs": [
        {
          "name": "available",
          "type": "bool"
        }
      ],
      "payable": false,
      "stateMutability": "nonpayable",
      "type": "function"
    },
    {
      "constant": false,
      "inputs": [
        {
          "name": "id",
          "type": "uint256"
        },
        {
          "name": "amount",
          "type": "uint256"
        }
      ],
      "name": "removeStock",
      "outputs": [
        {
          "name": "success",
          "type": "bool"
        }
      ],
      "payable": false,
      "stateMutability": "nonpayable",
      "type": "function"
    },
    {
      "constant": false,
      "inputs": [
        {
          "name": "id",
          "type": "uint256"
        },
        {
          "name": "amount",
          "type": "uint256"
        }
      ],
      "name": "payProducts",
      "outputs": [
        {
          "name": "success",
          "type": "bool"
        }
      ],
      "payable": true,
      "stateMutability": "payable",
      "type": "function"
    },
    {
      "constant": true,
      "inputs": [
        {
          "name": "id",
          "type": "uint256"
        }
      ],
      "name": "getProduct",
      "outputs": [
        {
          "name": "name",
          "type": "string"
        },
        {
          "name": "price",
          "type": "uint256"
        },
        {
          "name": "stock",
          "type": "uint256"
        }
      ],
      "payable": false,
      "stateMutability": "view",
      "type": "function"
    }
  ],
  "bytecode": "0x608060405260008060146101000a81548160ff0219169083151502179055503480156200002b57600080fd5b50604051620018d4380380620018d48339810180604052810190808051906020019092919080518201929190505050336000806101000a81548173ffffffffffffffffffffffffffffffffffffffff021916908373ffffffffffffffffffffffffffffffffffffffff16021790555081600260006101000a81548173ffffffffffffffffffffffffffffffffffffffff021916908373ffffffffffffffffffffffffffffffffffffffff1602179055508060039080519060200190620000f3929190620000fc565b505050620001ab565b828054600181600116156101000203166002900490600052602060002090601f016020900481019282601f106200013f57805160ff191683800117855562000170565b8280016001018555821562000170579182015b828111156200016f57825182559160200191906001019062000152565b5b5090506200017f919062000183565b5090565b620001a891905b80821115620001a45760008160009055506001016200018a565b5090565b90565b61171980620001bb6000396000f3006080604052600436106100fc576000357c0100000000000000000000000000000000000000000000000000000000900463ffffffff1680632faa393d146101015780633f4ba83a1461014357806351cff8d91461015a578063521936e61461019d5780635c975abb1461022d5780637acc0b201461025c5780637edd19a214610317578063818fb3e0146103665780638456cb59146103bd57806387a1e927146103d45780638da5cb5b14610423578063b9db15b41461047a578063bf5c88ff1461052e578063c27ed2a214610559578063d4ae6c20146105f8578063e3a9db1a14610647578063f2fde38b1461069e578063f340fa01146106e1575b600080fd5b6101296004803603810190808035906020019092919080359060200190929190505050610717565b604051808215151515815260200191505060405180910390f35b34801561014f57600080fd5b50610158610864565b005b34801561016657600080fd5b5061019b600480360381019080803573ffffffffffffffffffffffffffffffffffffffff169060200190929190505050610922565b005b3480156101a957600080fd5b506101b2610ac2565b6040518080602001828103825283818151815260200191508051906020019080838360005b838110156101f25780820151818401526020810190506101d7565b50505050905090810190601f16801561021f5780820380516001836020036101000a031916815260200191505b509250505060405180910390f35b34801561023957600080fd5b50610242610b60565b604051808215151515815260200191505060405180910390f35b34801561026857600080fd5b5061028760048036038101908080359060200190929190505050610b73565b6040518085815260200180602001848152602001838152602001828103825285818151815260200191508051906020019080838360005b838110156102d95780820151818401526020810190506102be565b50505050905090810190601f1680156103065780820380516001836020036101000a031916815260200191505b509550505050505060405180910390f35b34801561032357600080fd5b5061034c6004803603810190808035906020019092919080359060200190929190505050610c3b565b604051808215151515815260200191505060405180910390f35b34801561037257600080fd5b5061037b610d57565b604051808273ffffffffffffffffffffffffffffffffffffffff1673ffffffffffffffffffffffffffffffffffffffff16815260200191505060405180910390f35b3480156103c957600080fd5b506103d2610d7d565b005b3480156103e057600080fd5b506104096004803603810190808035906020019092919080359060200190929190505050610e3d565b604051808215151515815260200191505060405180910390f35b34801561042f57600080fd5b50610438610f29565b604051808273ffffffffffffffffffffffffffffffffffffffff1673ffffffffffffffffffffffffffffffffffffffff16815260200191505060405180910390f35b34801561048657600080fd5b506104a560048036038101908080359060200190929190505050610f4e565b6040518080602001848152602001838152602001828103825285818151815260200191508051906020019080838360005b838110156104f15780820151818401526020810190506104d6565b50505050905090810190601f16801561051e5780820380516001836020036101000a031916815260200191505b5094505050505060405180910390f35b34801561053a57600080fd5b50610543611040565b6040518082815260200191505060405180910390f35b34801561056557600080fd5b506105de60048036038101908080359060200190929190803590602001908201803590602001908080601f01602080910402602001604051908101604052809392919081815260200183838082843782019150505050505091929192908035906020019092919080359060200190929190505050611046565b604051808215151515815260200191505060405180910390f35b34801561060457600080fd5b5061062d60048036038101908080359060200190929190803590602001909291905050506111b1565b604051808215151515815260200191505060405180910390f35b34801561065357600080fd5b50610688600480360381019080803573ffffffffffffffffffffffffffffffffffffffff1690602001909291905050506112cd565b6040518082815260200191505060405180910390f35b3480156106aa57600080fd5b506106df600480360381019080803573ffffffffffffffffffffffffffffffffffffffff169060200190929190505050611316565b005b610715600480360381019080803573ffffffffffffffffffffffffffffffffffffffff16906020019092919050505061146b565b005b600080600060149054906101000a900460ff1615151561073657600080fd5b61075f8360056000878152602001908152602001600020600201546115b290919063ffffffff16565b9050803410158015610787575082600560008681526020019081526020016000206003015410155b15610858576107b7600260009054906101000a900473ffffffffffffffffffffffffffffffffffffffff1661146b565b6107e08360056000878152602001908152602001600020600301546115ea90919063ffffffff16565b60056000868152602001908152602001600020600301819055507f350df6fcc944b226b77efc36902e19b43c566d75173622086e809d46dfbc2220846005600087815260200190815260200160002060030154604051808381526020018281526020019250505060405180910390a16001915061085d565b600091505b5092915050565b6000809054906101000a900473ffffffffffffffffffffffffffffffffffffffff1673ffffffffffffffffffffffffffffffffffffffff163373ffffffffffffffffffffffffffffffffffffffff161415156108bf57600080fd5b600060149054906101000a900460ff1615156108da57600080fd5b60008060146101000a81548160ff0219169083151502179055507f7805862f689e2f13df9f062ff482ad3ad112aca9e0847911ed832e158c525b3360405160405180910390a1565b60008060009054906101000a900473ffffffffffffffffffffffffffffffffffffffff1673ffffffffffffffffffffffffffffffffffffffff163373ffffffffffffffffffffffffffffffffffffffff1614151561097f57600080fd5b600160008373ffffffffffffffffffffffffffffffffffffffff1673ffffffffffffffffffffffffffffffffffffffff168152602001908152602001600020549050803073ffffffffffffffffffffffffffffffffffffffff1631101515156109e457fe5b6000600160008473ffffffffffffffffffffffffffffffffffffffff1673ffffffffffffffffffffffffffffffffffffffff168152602001908152602001600020819055508173ffffffffffffffffffffffffffffffffffffffff166108fc829081150290604051600060405180830381858888f19350505050158015610a6f573d6000803e3d6000fd5b508173ffffffffffffffffffffffffffffffffffffffff167f7084f5476618d8e60b11ef0d7d3f06914655adb8793e28ff7f018d4c76d505d5826040518082815260200191505060405180910390a25050565b60038054600181600116156101000203166002900480601f016020809104026020016040519081016040528092919081815260200182805460018160011615610100020316600290048015610b585780601f10610b2d57610100808354040283529160200191610b58565b820191906000526020600020905b815481529060010190602001808311610b3b57829003601f168201915b505050505081565b600060149054906101000a900460ff1681565b6005602052806000526040600020600091509050806000015490806001018054600181600116156101000203166002900480601f016020809104026020016040519081016040528092919081815260200182805460018160011615610100020316600290048015610c255780601f10610bfa57610100808354040283529160200191610c25565b820191906000526020600020905b815481529060010190602001808311610c0857829003601f168201915b5050505050908060020154908060030154905084565b6000600260009054906101000a900473ffffffffffffffffffffffffffffffffffffffff1673ffffffffffffffffffffffffffffffffffffffff163373ffffffffffffffffffffffffffffffffffffffff16141515610c9957600080fd5b600060149054906101000a900460ff16151515610cb557600080fd5b610cde82600560008681526020019081526020016000206003015461160390919063ffffffff16565b60056000858152602001908152602001600020600301819055507febcfd4ce21b6aefd071d3e0f4bfa57e491b5308a1ffb5a3a8e4805e23f00b8d7836005600086815260200190815260200160002060030154604051808381526020018281526020019250505060405180910390a16001905092915050565b600260009054906101000a900473ffffffffffffffffffffffffffffffffffffffff1681565b6000809054906101000a900473ffffffffffffffffffffffffffffffffffffffff1673ffffffffffffffffffffffffffffffffffffffff163373ffffffffffffffffffffffffffffffffffffffff16141515610dd857600080fd5b600060149054906101000a900460ff16151515610df457600080fd5b6001600060146101000a81548160ff0219169083151502179055507f6985a02210a168e66602d3235cb6db0e70f92b3ba4d376a33c0f3d9434bff62560405160405180910390a1565b6000600260009054906101000a900473ffffffffffffffffffffffffffffffffffffffff1673ffffffffffffffffffffffffffffffffffffffff163373ffffffffffffffffffffffffffffffffffffffff16141515610e9b57600080fd5b600060149054906101000a900460ff16151515610eb757600080fd5b816005600085815260200190815260200160002060030154101515610f1e577f363750a84abf15912d8e41d236ff55155b4303ed4cf6c3d87e6151d272a3d3b18383604051808381526020018281526020019250505060405180910390a160019050610f23565b600090505b92915050565b6000809054906101000a900473ffffffffffffffffffffffffffffffffffffffff1681565b60606000806005600085815260200190815260200160002060010160056000868152602001908152602001600020600201546005600087815260200190815260200160002060030154828054600181600116156101000203166002900480601f01602080910402602001604051908101604052809291908181526020018280546001816001161561010002031660029004801561102c5780601f106110015761010080835404028352916020019161102c565b820191906000526020600020905b81548152906001019060200180831161100f57829003601f168201915b505050505092509250925092509193909250565b60045481565b600061105061161f565b6060600260009054906101000a900473ffffffffffffffffffffffffffffffffffffffff1673ffffffffffffffffffffffffffffffffffffffff163373ffffffffffffffffffffffffffffffffffffffff161415156110ae57600080fd5b600060149054906101000a900460ff161515156110ca57600080fd5b608060405190810160405280888152602001878152602001868152602001858152509150816020015190506000826040015111801561110b57506000815114155b156111a257816005600089815260200190815260200160002060008201518160000155602082015181600101908051906020019061114a929190611648565b5060408201518160020155606082015181600301559050507f4fc9d5acc453e78e01b205af5788a1c62f195c4b5cdc8eb8f1c670863b7e736a876040518082815260200191505060405180910390a1600192506111a7565b600092505b5050949350505050565b6000600260009054906101000a900473ffffffffffffffffffffffffffffffffffffffff1673ffffffffffffffffffffffffffffffffffffffff163373ffffffffffffffffffffffffffffffffffffffff1614151561120f57600080fd5b600060149054906101000a900460ff1615151561122b57600080fd5b6112548260056000868152602001908152602001600020600301546115ea90919063ffffffff16565b60056000858152602001908152602001600020600301819055507fd647384cccbd8b477a7b02b9e866072937e9a23b473b9de13fc0c6cb1d392a0a836005600086815260200190815260200160002060030154604051808381526020018281526020019250505060405180910390a16001905092915050565b6000600160008373ffffffffffffffffffffffffffffffffffffffff1673ffffffffffffffffffffffffffffffffffffffff168152602001908152602001600020549050919050565b6000809054906101000a900473ffffffffffffffffffffffffffffffffffffffff1673ffffffffffffffffffffffffffffffffffffffff163373ffffffffffffffffffffffffffffffffffffffff1614151561137157600080fd5b600073ffffffffffffffffffffffffffffffffffffffff168173ffffffffffffffffffffffffffffffffffffffff16141515156113ad57600080fd5b8073ffffffffffffffffffffffffffffffffffffffff166000809054906101000a900473ffffffffffffffffffffffffffffffffffffffff1673ffffffffffffffffffffffffffffffffffffffff167f8be0079c531659141344cd1fd0a4f28419497f9722a3daafe3b4186f6b6457e060405160405180910390a3806000806101000a81548173ffffffffffffffffffffffffffffffffffffffff021916908373ffffffffffffffffffffffffffffffffffffffff16021790555050565b60008060009054906101000a900473ffffffffffffffffffffffffffffffffffffffff1673ffffffffffffffffffffffffffffffffffffffff163373ffffffffffffffffffffffffffffffffffffffff161415156114c857600080fd5b34905061151d81600160008573ffffffffffffffffffffffffffffffffffffffff1673ffffffffffffffffffffffffffffffffffffffff1681526020019081526020016000205461160390919063ffffffff16565b600160008473ffffffffffffffffffffffffffffffffffffffff1673ffffffffffffffffffffffffffffffffffffffff168152602001908152602001600020819055508173ffffffffffffffffffffffffffffffffffffffff167f2da466a7b24304f47e87fa2e1e5a81b9831ce54fec19055ce277ca2f39ba42c4826040518082815260200191505060405180910390a25050565b6000808314156115c557600090506115e4565b81830290508183828115156115d657fe5b041415156115e057fe5b8090505b92915050565b60008282111515156115f857fe5b818303905092915050565b6000818301905082811015151561161657fe5b80905092915050565b608060405190810160405280600081526020016060815260200160008152602001600081525090565b828054600181600116156101000203166002900490600052602060002090601f016020900481019282601f1061168957805160ff19168380011785556116b7565b828001600101855582156116b7579182015b828111156116b657825182559160200191906001019061169b565b5b5090506116c491906116c8565b5090565b6116ea91905b808211156116e65760008160009055506001016116ce565b5090565b905600a165627a7a723058202a21deb6ec9f3c28c906f259b3254df7d684480536cc64cd89adf928c19becfa0029",
  "source": "pragma solidity ^0.4.21;\n\nimport \"./openzeppelin-solidity/Pausable.sol\";\nimport \"./openzeppelin-solidity/SafeMath.sol\";\nimport \"./openzeppelin-solidity/Escrow.sol\";\n\n/** @title Store */\ncontract Store is Pausable, Escrow {\n    using SafeMath for uint256; \n\n    ///State\n\n    address public storeOwner;\n    string public storeName;\n    uint256 public storeBalance;\n\n    mapping(uint256 => Product) public products;\n\n    struct Product {\n        uint256 id;\n        string name;\n        uint256 price;\n        uint256 stock;\n    }\n\n    ///Events \n    \n    event ProductAdded(uint256 id);\n    event ProductRemoved(uint256 id, uint256 stock);\n    \n    event StockUpdated(uint256 id, uint256 stock);\n    event StockAvaiable(uint256 id, uint256 quantity);\n    \n    event Purchase(uint256 id, uint256 stock);\n\n    ///Modifier\n\n    /**\n    * @dev Throws if called by any account other than owner.\n    */\n    modifier onlyStoreOwner {\n        require(msg.sender == storeOwner);\n        _;\n    }\n\n    ///Functions\n\n    /**\n    * @notice Constructor\n    * @param _storeOwner Address of the owner of the Store\n    * @param _storeName Name of the store\n    */\n    constructor(address _storeOwner, string _storeName) public {\n        storeOwner = _storeOwner;\n        storeName = _storeName;\n    }\n    \n    /**\n    * @notice Add new product to the Store\n    * @param id Identification of the new prodcut\n    * @param name Name of the new product\n    * @param price Price of the new product\n    * @param stock Stock of the new product\n    */\n    function addProduct(uint256 id, string name, uint256 price, uint256 stock) public onlyStoreOwner whenNotPaused returns (bool success) {\n        Product memory newProduct = Product(id, name, price, stock);\n        bytes memory temp = bytes(newProduct.name);\n        if (newProduct.price > 0 && temp.length != 0) {\n            products[id] = newProduct;\n            emit ProductAdded(id);\n            return true;\n        }\n        return false;\n    }\n\n    /**\n    * @notice Add stock for a product of the Store\n    * @param id Identification of the prodcut\n    * @param amount Amount of stock to add\n    */\n    function addStock(uint256 id, uint256 amount) public onlyStoreOwner whenNotPaused returns (bool success) {\n        products[id].stock = products[id].stock.add(amount);\n        emit StockUpdated(id, products[id].stock);\n        return true;\n    }\n\n    /**\n    * @notice Check stock avaiable\n    * @param id Identification of the prodcut\n    * @param needed Stock needed\n    */\n    function checkStock(uint256 id, uint256 needed) onlyStoreOwner public whenNotPaused returns(bool available) {\n        if (products[id].stock >= needed) {\n            emit StockAvaiable(id, needed);\n            return true;\n        }\n        return false;\n    }\n\n    /**\n    * @notice Remove product of the Store\n    * @param id Identification of the prodcut\n    * @param amount Amount of stock to remove\n    */\n    function removeStock(uint256 id, uint256 amount) public onlyStoreOwner whenNotPaused returns (bool success){\n        products[id].stock = products[id].stock.sub(amount);\n        emit ProductRemoved(id, products[id].stock);\n        return true;\n    }\n    \n    /**\n    * @notice Pay for a product\n    * @param id Identification of the prodcut\n    * @param amount Amount of products\n    */\n    function payProducts(uint256 id, uint256 amount) public payable whenNotPaused returns (bool success) {\n        uint256 totalPrice = products[id].price.mul(amount);\n        if (msg.value >= totalPrice && products[id].stock >= amount) {\n            deposit(storeOwner);\n            products[id].stock = products[id].stock.sub(amount);\n            emit Purchase(id, products[id].stock);\n            return true;\n        }\n        return false;\n    }\n\n    /**\n    * @notice Get product\n    * @param id Identification of the prodcut\n    */\n    function getProduct(uint256 id) public view returns (string name, uint256 price, uint256 stock) {\n        return (products[id].name, products[id].price, products[id].stock);\n    }\n    \n    function() public payable {\n        revert();\n    }\n    \n}",
  "sourcePath": "/Users/goliat/Code/Ethereum/marketplace/contracts/Store.sol",
  "compiler": {
    "name": "solc",
    "version": "0.4.24+commit.e67f0147.Emscripten.clang"
  },
  "schemaVersion": "2.0.1",
  "updatedAt": "2018-08-27T20:52:26.133Z"
}